{
  "contractName": "LandRegistry",
  "abi": [
    {
      "inputs": [],
      "stateMutability": "nonpayable",
      "type": "constructor"
    },
    {
      "anonymous": false,
      "inputs": [
        {
          "indexed": false,
          "internalType": "uint256",
          "name": "id",
          "type": "uint256"
        },
        {
          "indexed": false,
          "internalType": "address",
          "name": "owner",
          "type": "address"
        },
        {
          "indexed": false,
          "internalType": "string",
          "name": "location",
          "type": "string"
        }
      ],
      "name": "LandRegistered",
      "type": "event"
    },
    {
      "anonymous": false,
      "inputs": [
        {
          "indexed": false,
          "internalType": "uint256",
          "name": "id",
          "type": "uint256"
        },
        {
          "indexed": false,
          "internalType": "bool",
          "name": "isAvailable",
          "type": "bool"
        }
      ],
      "name": "LandStatusUpdated",
      "type": "event"
    },
    {
      "anonymous": false,
      "inputs": [
        {
          "indexed": false,
          "internalType": "uint256",
          "name": "id",
          "type": "uint256"
        },
        {
          "indexed": false,
          "internalType": "address",
          "name": "from",
          "type": "address"
        },
        {
          "indexed": false,
          "internalType": "address",
          "name": "to",
          "type": "address"
        }
      ],
      "name": "LandTransferred",
      "type": "event"
    },
    {
      "inputs": [],
      "name": "admin",
      "outputs": [
        {
          "internalType": "address",
          "name": "",
          "type": "address"
        }
      ],
      "stateMutability": "view",
      "type": "function",
      "constant": true
    },
    {
      "inputs": [
        {
          "internalType": "uint256",
          "name": "",
          "type": "uint256"
        }
      ],
      "name": "lands",
      "outputs": [
        {
          "internalType": "uint256",
          "name": "id",
          "type": "uint256"
        },
        {
          "internalType": "address",
          "name": "owner",
          "type": "address"
        },
        {
          "internalType": "string",
          "name": "location",
          "type": "string"
        },
        {
          "internalType": "bool",
          "name": "isAvailable",
          "type": "bool"
        }
      ],
      "stateMutability": "view",
      "type": "function",
      "constant": true
    },
    {
      "inputs": [],
      "name": "nextId",
      "outputs": [
        {
          "internalType": "uint256",
          "name": "",
          "type": "uint256"
        }
      ],
      "stateMutability": "view",
      "type": "function",
      "constant": true
    },
    {
      "inputs": [
        {
          "internalType": "string",
          "name": "_location",
          "type": "string"
        }
      ],
      "name": "registerLand",
      "outputs": [],
      "stateMutability": "nonpayable",
      "type": "function"
    },
    {
      "inputs": [
        {
          "internalType": "uint256",
          "name": "_id",
          "type": "uint256"
        },
        {
          "internalType": "address",
          "name": "_newOwner",
          "type": "address"
        }
      ],
      "name": "transferLand",
      "outputs": [],
      "stateMutability": "nonpayable",
      "type": "function"
    },
    {
      "inputs": [
        {
          "internalType": "uint256",
          "name": "_id",
          "type": "uint256"
        },
        {
          "internalType": "bool",
          "name": "_isAvailable",
          "type": "bool"
        }
      ],
      "name": "updateLandStatus",
      "outputs": [],
      "stateMutability": "nonpayable",
      "type": "function"
    },
    {
      "inputs": [
        {
          "internalType": "uint256",
          "name": "_id",
          "type": "uint256"
        }
      ],
      "name": "getLand",
      "outputs": [
        {
          "components": [
            {
              "internalType": "uint256",
              "name": "id",
              "type": "uint256"
            },
            {
              "internalType": "address",
              "name": "owner",
              "type": "address"
            },
            {
              "internalType": "string",
              "name": "location",
              "type": "string"
            },
            {
              "internalType": "bool",
              "name": "isAvailable",
              "type": "bool"
            }
          ],
          "internalType": "struct LandRegistry.Land",
          "name": "",
          "type": "tuple"
        }
      ],
      "stateMutability": "view",
      "type": "function",
      "constant": true
    },
    {
      "inputs": [],
      "name": "getAllLands",
      "outputs": [
        {
          "components": [
            {
              "internalType": "uint256",
              "name": "id",
              "type": "uint256"
            },
            {
              "internalType": "address",
              "name": "owner",
              "type": "address"
            },
            {
              "internalType": "string",
              "name": "location",
              "type": "string"
            },
            {
              "internalType": "bool",
              "name": "isAvailable",
              "type": "bool"
            }
          ],
          "internalType": "struct LandRegistry.Land[]",
          "name": "",
          "type": "tuple[]"
        }
      ],
      "stateMutability": "view",
      "type": "function",
      "constant": true
    }
  ],
  "bytecode": "0x6080604052600060015534801561001557600080fd5b5033600260006101000a81548173ffffffffffffffffffffffffffffffffffffffff021916908373ffffffffffffffffffffffffffffffffffffffff1602179055506113ca806100666000396000f3fe608060405234801561001057600080fd5b50600436106100885760003560e01c8063e261f1e51161005b578063e261f1e514610101578063f02dd53f14610134578063f851a44014610164578063fbed216b1461018257610088565b806361b8ce8c1461008d57806373bcfa9b146100ab578063b7b6e543146100c7578063c798ff7d146100e5575b600080fd5b61009561019e565b6040516100a29190610fe0565b60405180910390f35b6100c560048036038101906100c09190610c6a565b6101a4565b005b6100cf6102b1565b6040516100dc9190610f5c565b60405180910390f35b6100ff60048036038101906100fa9190610c2e565b6104c9565b005b61011b60048036038101906101169190610c05565b61062d565b60405161012b9493929190611070565b60405180910390f35b61014e60048036038101906101499190610c05565b610712565b60405161015b9190610fbe565b60405180910390f35b61016c61084b565b6040516101799190610f41565b60405180910390f35b61019c60048036038101906101979190610bc4565b610871565b005b60015481565b3373ffffffffffffffffffffffffffffffffffffffff1660008084815260200190815260200160002060010160009054906101000a900473ffffffffffffffffffffffffffffffffffffffff1673ffffffffffffffffffffffffffffffffffffffff1614610247576040517f08c379a000000000000000000000000000000000000000000000000000000000815260040161023e90610f7e565b60405180910390fd5b8060008084815260200190815260200160002060030160006101000a81548160ff0219169083151502179055507f9c86e7fdd026aa00f17d258131d37cc4686f12d3ca638a5e60da3fa745b7899382826040516102a59291906110bc565b60405180910390a15050565b6060600060015467ffffffffffffffff8111156102f7577f4e487b7100000000000000000000000000000000000000000000000000000000600052604160045260246000fd5b60405190808252806020026020018201604052801561033057816020015b61031d610a3a565b8152602001906001900390816103155790505b50905060005b6001548110156104c157600080828152602001908152602001600020604051806080016040529081600082015481526020016001820160009054906101000a900473ffffffffffffffffffffffffffffffffffffffff1673ffffffffffffffffffffffffffffffffffffffff1673ffffffffffffffffffffffffffffffffffffffff1681526020016002820180546103cd90611236565b80601f01602080910402602001604051908101604052809291908181526020018280546103f990611236565b80156104465780601f1061041b57610100808354040283529160200191610446565b820191906000526020600020905b81548152906001019060200180831161042957829003601f168201915b505050505081526020016003820160009054906101000a900460ff1615151515815250508282815181106104a3577f4e487b7100000000000000000000000000000000000000000000000000000000600052603260045260246000fd5b602002602001018190525080806104b990611268565b915050610336565b508091505090565b3373ffffffffffffffffffffffffffffffffffffffff1660008084815260200190815260200160002060010160009054906101000a900473ffffffffffffffffffffffffffffffffffffffff1673ffffffffffffffffffffffffffffffffffffffff161461056c576040517f08c379a000000000000000000000000000000000000000000000000000000000815260040161056390610f7e565b60405180910390fd5b8060008084815260200190815260200160002060010160006101000a81548173ffffffffffffffffffffffffffffffffffffffff021916908373ffffffffffffffffffffffffffffffffffffffff160217905550600080600084815260200190815260200160002060030160006101000a81548160ff0219169083151502179055507f1080b2f211753e5090f26ef7ffdc6bb3e66a125c7290200d10b502160bb1f56682338360405161062193929190610ffb565b60405180910390a15050565b60006020528060005260406000206000915090508060000154908060010160009054906101000a900473ffffffffffffffffffffffffffffffffffffffff169080600201805461067c90611236565b80601f01602080910402602001604051908101604052809291908181526020018280546106a890611236565b80156106f55780601f106106ca576101008083540402835291602001916106f5565b820191906000526020600020905b8154815290600101906020018083116106d857829003601f168201915b5050505050908060030160009054906101000a900460ff16905084565b61071a610a3a565b600080838152602001908152602001600020604051806080016040529081600082015481526020016001820160009054906101000a900473ffffffffffffffffffffffffffffffffffffffff1673ffffffffffffffffffffffffffffffffffffffff1673ffffffffffffffffffffffffffffffffffffffff1681526020016002820180546107a790611236565b80601f01602080910402602001604051908101604052809291908181526020018280546107d390611236565b80156108205780601f106107f557610100808354040283529160200191610820565b820191906000526020600020905b81548152906001019060200180831161080357829003601f168201915b505050505081526020016003820160009054906101000a900460ff1615151515815250509050919050565b600260009054906101000a900473ffffffffffffffffffffffffffffffffffffffff1681565b600260009054906101000a900473ffffffffffffffffffffffffffffffffffffffff1673ffffffffffffffffffffffffffffffffffffffff163373ffffffffffffffffffffffffffffffffffffffff1614610901576040517f08c379a00000000000000000000000000000000000000000000000000000000081526004016108f890610f9e565b60405180910390fd5b604051806080016040528060015481526020013373ffffffffffffffffffffffffffffffffffffffff1681526020018281526020016001151581525060008060015481526020019081526020016000206000820151816000015560208201518160010160006101000a81548173ffffffffffffffffffffffffffffffffffffffff021916908373ffffffffffffffffffffffffffffffffffffffff16021790555060408201518160020190805190602001906109be929190610a7a565b5060608201518160030160006101000a81548160ff0219169083151502179055509050507f9c4ad74928fec1ee86181680df0e76bf575b79ea2a0347f7ed270884bdd26ad76001543383604051610a1793929190611032565b60405180910390a160016000815480929190610a3290611268565b919050555050565b604051806080016040528060008152602001600073ffffffffffffffffffffffffffffffffffffffff168152602001606081526020016000151581525090565b828054610a8690611236565b90600052602060002090601f016020900481019282610aa85760008555610aef565b82601f10610ac157805160ff1916838001178555610aef565b82800160010185558215610aef579182015b82811115610aee578251825591602001919060010190610ad3565b5b509050610afc9190610b00565b5090565b5b80821115610b19576000816000905550600101610b01565b5090565b6000610b30610b2b84611116565b6110e5565b905082815260208101848484011115610b4857600080fd5b610b538482856111f4565b509392505050565b600081359050610b6a8161134f565b92915050565b600081359050610b7f81611366565b92915050565b600082601f830112610b9657600080fd5b8135610ba6848260208601610b1d565b91505092915050565b600081359050610bbe8161137d565b92915050565b600060208284031215610bd657600080fd5b600082013567ffffffffffffffff811115610bf057600080fd5b610bfc84828501610b85565b91505092915050565b600060208284031215610c1757600080fd5b6000610c2584828501610baf565b91505092915050565b60008060408385031215610c4157600080fd5b6000610c4f85828601610baf565b9250506020610c6085828601610b5b565b9150509250929050565b60008060408385031215610c7d57600080fd5b6000610c8b85828601610baf565b9250506020610c9c85828601610b70565b9150509250929050565b6000610cb28383610e5d565b905092915050565b610cc3816111ac565b82525050565b610cd2816111ac565b82525050565b6000610ce382611156565b610ced8185611179565b935083602082028501610cff85611146565b8060005b85811015610d3b5784840389528151610d1c8582610ca6565b9450610d278361116c565b925060208a01995050600181019050610d03565b50829750879550505050505092915050565b610d56816111be565b82525050565b610d65816111be565b82525050565b6000610d7682611161565b610d80818561118a565b9350610d90818560208601611203565b610d998161133e565b840191505092915050565b6000610daf82611161565b610db9818561119b565b9350610dc9818560208601611203565b610dd28161133e565b840191505092915050565b6000610dea600d8361119b565b91507f4e6f7420746865206f776e6572000000000000000000000000000000000000006000830152602082019050919050565b6000610e2a600e8361119b565b91507f4e6f7420617574686f72697a65640000000000000000000000000000000000006000830152602082019050919050565b6000608083016000830151610e756000860182610f23565b506020830151610e886020860182610cba565b5060408301518482036040860152610ea08282610d6b565b9150506060830151610eb56060860182610d4d565b508091505092915050565b6000608083016000830151610ed86000860182610f23565b506020830151610eeb6020860182610cba565b5060408301518482036040860152610f038282610d6b565b9150506060830151610f186060860182610d4d565b508091505092915050565b610f2c816111ea565b82525050565b610f3b816111ea565b82525050565b6000602082019050610f566000830184610cc9565b92915050565b60006020820190508181036000830152610f768184610cd8565b905092915050565b60006020820190508181036000830152610f9781610ddd565b9050919050565b60006020820190508181036000830152610fb781610e1d565b9050919050565b60006020820190508181036000830152610fd88184610ec0565b905092915050565b6000602082019050610ff56000830184610f32565b92915050565b60006060820190506110106000830186610f32565b61101d6020830185610cc9565b61102a6040830184610cc9565b949350505050565b60006060820190506110476000830186610f32565b6110546020830185610cc9565b81810360408301526110668184610da4565b9050949350505050565b60006080820190506110856000830187610f32565b6110926020830186610cc9565b81810360408301526110a48185610da4565b90506110b36060830184610d5c565b95945050505050565b60006040820190506110d16000830185610f32565b6110de6020830184610d5c565b9392505050565b6000604051905081810181811067ffffffffffffffff8211171561110c5761110b61130f565b5b8060405250919050565b600067ffffffffffffffff8211156111315761113061130f565b5b601f19601f8301169050602081019050919050565b6000819050602082019050919050565b600081519050919050565b600081519050919050565b6000602082019050919050565b600082825260208201905092915050565b600082825260208201905092915050565b600082825260208201905092915050565b60006111b7826111ca565b9050919050565b60008115159050919050565b600073ffffffffffffffffffffffffffffffffffffffff82169050919050565b6000819050919050565b82818337600083830152505050565b60005b83811015611221578082015181840152602081019050611206565b83811115611230576000848401525b50505050565b6000600282049050600182168061124e57607f821691505b60208210811415611262576112616112e0565b5b50919050565b6000611273826111ea565b91507fffffffffffffffffffffffffffffffffffffffffffffffffffffffffffffffff8214156112a6576112a56112b1565b5b600182019050919050565b7f4e487b7100000000000000000000000000000000000000000000000000000000600052601160045260246000fd5b7f4e487b7100000000000000000000000000000000000000000000000000000000600052602260045260246000fd5b7f4e487b7100000000000000000000000000000000000000000000000000000000600052604160045260246000fd5b6000601f19601f8301169050919050565b611358816111ac565b811461136357600080fd5b50565b61136f816111be565b811461137a57600080fd5b50565b611386816111ea565b811461139157600080fd5b5056fea26469706673582212208eaff18e3e44a8af53f75bbe1c184597a7450cc9873af0a12e9e222216199a6664736f6c63430008000033",
  "immutableReferences": {},
  "source": "// SPDX-License-Identifier: MIT\npragma solidity ^0.8.0;\n\ncontract LandRegistry {\n    struct Land {\n        uint id;\n        address owner;\n        string location;\n        bool isAvailable;\n    }\n    \n    mapping(uint => Land) public lands;\n    uint public nextId = 0;\n    address public admin;\n\n    event LandRegistered(uint id, address owner, string location);\n    event LandTransferred(uint id, address from, address to);\n    event LandStatusUpdated(uint id, bool isAvailable);\n\n    modifier onlyAdmin(){\n        require(msg.sender == admin, \"Not authorized\");\n        _;\n    }\n\n    constructor(){\n        admin = msg.sender; // Change this to the controller's email\n    }\n\n    function registerLand(string memory _location) public onlyAdmin  {\n        lands[nextId] = Land(nextId, msg.sender, _location, true);\n        emit LandRegistered(nextId, msg.sender, _location);\n        nextId++;\n    }\n\n    function transferLand(uint _id, address _newOwner) public {\n        require(lands[_id].owner == msg.sender, \"Not the owner\");\n        lands[_id].owner = _newOwner;\n        lands[_id].isAvailable = false;\n        emit LandTransferred(_id, msg.sender, _newOwner);\n    }\n\n    function updateLandStatus(uint _id, bool _isAvailable) public {\n        require(lands[_id].owner == msg.sender, \"Not the owner\");\n        lands[_id].isAvailable = _isAvailable;\n        emit LandStatusUpdated(_id, _isAvailable);\n    }\n\n    function getLand(uint _id) public view returns (Land memory) {\n        return lands[_id];\n    }\n\n    // New function to get all registered land parcels\n    function getAllLands() public view returns (Land[] memory) {\n        Land[] memory allLands = new Land[](nextId);\n        for (uint i = 0; i < nextId; i++) {\n            allLands[i] = lands[i];\n        }\n        return allLands;\n    }\n}\n",
  "sourcePath": "/Users/mac/Documents/land-registry/backend/contracts/LandRegistry.sol",
  "compiler": {
    "name": "solc",
    "version": "0.8.0+commit.c7dfd78e.Emscripten.clang"
  },
  "schemaVersion": "3.4.16",
  "updatedAt": "2024-08-04T01:40:50.854Z",
  "networkType": "ethereum",
  "devdoc": {
    "kind": "dev",
    "methods": {},
    "version": 1
  },
  "userdoc": {
    "kind": "user",
    "methods": {},
    "version": 1
  }
}